{
  "_format": "hh-sol-artifact-1",
  "contractName": "Fundraising",
  "sourceName": "contracts/Fundraising.sol",
  "abi": [
    {
      "inputs": [
        {
          "internalType": "uint256",
          "name": "_targetAmount",
          "type": "uint256"
        }
      ],
      "stateMutability": "nonpayable",
      "type": "constructor"
    },
    {
      "inputs": [
        {
          "internalType": "address",
          "name": "",
          "type": "address"
        }
      ],
      "name": "donations",
      "outputs": [
        {
          "internalType": "uint256",
          "name": "",
          "type": "uint256"
        }
      ],
      "stateMutability": "view",
      "type": "function"
    },
    {
      "inputs": [],
      "name": "finishTime",
      "outputs": [
        {
          "internalType": "uint256",
          "name": "",
          "type": "uint256"
        }
      ],
      "stateMutability": "view",
      "type": "function"
    },
    {
      "inputs": [],
      "name": "owner",
      "outputs": [
        {
          "internalType": "address",
          "name": "",
          "type": "address"
        }
      ],
      "stateMutability": "view",
      "type": "function"
    },
    {
      "inputs": [],
      "name": "raisedAmount",
      "outputs": [
        {
          "internalType": "uint256",
          "name": "",
          "type": "uint256"
        }
      ],
      "stateMutability": "view",
      "type": "function"
    },
    {
      "inputs": [],
      "name": "refund",
      "outputs": [],
      "stateMutability": "nonpayable",
      "type": "function"
    },
    {
      "inputs": [],
      "name": "targetAmount",
      "outputs": [
        {
          "internalType": "uint256",
          "name": "",
          "type": "uint256"
        }
      ],
      "stateMutability": "view",
      "type": "function"
    },
    {
      "inputs": [],
      "name": "withdrawDonations",
      "outputs": [],
      "stateMutability": "nonpayable",
      "type": "function"
    },
    {
      "stateMutability": "payable",
      "type": "receive"
    }
  ],
  "bytecode": "0x60806040526000600355621275004261001891906100d5565b60045534801561002757600080fd5b50604051610bee380380610bee833981810160405281019061004991906100ac565b8060008190555033600160006101000a81548173ffffffffffffffffffffffffffffffffffffffff021916908373ffffffffffffffffffffffffffffffffffffffff1602179055505061017b565b6000815190506100a681610164565b92915050565b6000602082840312156100be57600080fd5b60006100cc84828501610097565b91505092915050565b60006100e08261012b565b91506100eb8361012b565b9250827fffffffffffffffffffffffffffffffffffffffffffffffffffffffffffffffff038211156101205761011f610135565b5b828201905092915050565b6000819050919050565b7f4e487b7100000000000000000000000000000000000000000000000000000000600052601160045260246000fd5b61016d8161012b565b811461017857600080fd5b50565b610a648061018a6000396000f3fe6080604052600436106100745760003560e01c8063953b8fb81161004e578063953b8fb8146101a0578063c59ee1dc146101cb578063cc6cb19a146101f6578063ce1b088a146102335761012e565b8063590e1ae3146101335780635958611e1461014a5780638da5cb5b146101755761012e565b3661012e5760045442106100bd576040517f08c379a00000000000000000000000000000000000000000000000000000000081526004016100b4906108aa565b60405180910390fd5b34600260003373ffffffffffffffffffffffffffffffffffffffff1673ffffffffffffffffffffffffffffffffffffffff168152602001908152602001600020600082825461010c9190610956565b9250508190555034600360008282546101259190610956565b92505081905550005b600080fd5b34801561013f57600080fd5b5061014861024a565b005b34801561015657600080fd5b5061015f610429565b60405161016c919061092a565b60405180910390f35b34801561018157600080fd5b5061018a61042f565b604051610197919061084f565b60405180910390f35b3480156101ac57600080fd5b506101b5610455565b6040516101c2919061092a565b60405180910390f35b3480156101d757600080fd5b506101e061045b565b6040516101ed919061092a565b60405180910390f35b34801561020257600080fd5b5061021d60048036038101906102189190610616565b610461565b60405161022a919061092a565b60405180910390f35b34801561023f57600080fd5b50610248610479565b005b600454421161028e576040517f08c379a0000000000000000000000000000000000000000000000000000000008152600401610285906108ca565b60405180910390fd5b600054600354106102d4576040517f08c379a00000000000000000000000000000000000000000000000000000000081526004016102cb906108ea565b60405180910390fd5b6000600260003373ffffffffffffffffffffffffffffffffffffffff1673ffffffffffffffffffffffffffffffffffffffff1681526020019081526020016000205411610356576040517f08c379a000000000000000000000000000000000000000000000000000000000815260040161034d9061086a565b60405180910390fd5b6000600260003373ffffffffffffffffffffffffffffffffffffffff1673ffffffffffffffffffffffffffffffffffffffff1681526020019081526020016000205490506000600260003373ffffffffffffffffffffffffffffffffffffffff1673ffffffffffffffffffffffffffffffffffffffff168152602001908152602001600020819055503373ffffffffffffffffffffffffffffffffffffffff166108fc829081150290604051600060405180830381858888f19350505050158015610425573d6000803e3d6000fd5b5050565b60045481565b600160009054906101000a900473ffffffffffffffffffffffffffffffffffffffff1681565b60005481565b60035481565b60026020528060005260406000206000915090505481565b600160009054906101000a900473ffffffffffffffffffffffffffffffffffffffff1673ffffffffffffffffffffffffffffffffffffffff163373ffffffffffffffffffffffffffffffffffffffff1614610509576040517f08c379a00000000000000000000000000000000000000000000000000000000081526004016105009061090a565b60405180910390fd5b6000546003541015610550576040517f08c379a00000000000000000000000000000000000000000000000000000000081526004016105479061088a565b60405180910390fd5b6004544211610594576040517f08c379a000000000000000000000000000000000000000000000000000000000815260040161058b906108ca565b60405180910390fd5b600160009054906101000a900473ffffffffffffffffffffffffffffffffffffffff1673ffffffffffffffffffffffffffffffffffffffff166108fc6003549081150290604051600060405180830381858888f193505050501580156105fe573d6000803e3d6000fd5b50565b60008135905061061081610a17565b92915050565b60006020828403121561062857600080fd5b600061063684828501610601565b91505092915050565b610648816109ac565b82525050565b600061065b602483610945565b91507f596f7520646964206e6f7420646f6e61746520746f20746869732063616d706160008301527f69676e2e000000000000000000000000000000000000000000000000000000006020830152604082019050919050565b60006106c1602283610945565b91507f5468652070726f6a65637420646964206e6f742072656163682074686520676f60008301527f616c0000000000000000000000000000000000000000000000000000000000006020830152604082019050919050565b6000610727601583610945565b91507f546869732063616d706169676e206973206f76657200000000000000000000006000830152602082019050919050565b6000610767601d83610945565b91507f5468652063616d706169676e206973206e6f74206f766572207965742e0000006000830152602082019050919050565b60006107a7601e83610945565b91507f5468652063616d706169676e20726561636865642074686520676f616c2e00006000830152602082019050919050565b60006107e7602883610945565b91507f46756e64732077696c6c206f6e6c792062652072656c656173656420746f207460008301527f6865206f776e65720000000000000000000000000000000000000000000000006020830152604082019050919050565b610849816109de565b82525050565b6000602082019050610864600083018461063f565b92915050565b600060208201905081810360008301526108838161064e565b9050919050565b600060208201905081810360008301526108a3816106b4565b9050919050565b600060208201905081810360008301526108c38161071a565b9050919050565b600060208201905081810360008301526108e38161075a565b9050919050565b600060208201905081810360008301526109038161079a565b9050919050565b60006020820190508181036000830152610923816107da565b9050919050565b600060208201905061093f6000830184610840565b92915050565b600082825260208201905092915050565b6000610961826109de565b915061096c836109de565b9250827fffffffffffffffffffffffffffffffffffffffffffffffffffffffffffffffff038211156109a1576109a06109e8565b5b828201905092915050565b60006109b7826109be565b9050919050565b600073ffffffffffffffffffffffffffffffffffffffff82169050919050565b6000819050919050565b7f4e487b7100000000000000000000000000000000000000000000000000000000600052601160045260246000fd5b610a20816109ac565b8114610a2b57600080fd5b5056fea2646970667358221220cc8017f5c7db39b9db21b94fbc243c2abfdde3b0e44eb0a0d9114629d0bf901564736f6c63430008000033",
  "linkReferences": {},
  "deployedLinkReferences": {}
}